:02000000F12AE3
:10000800FF00030E8301BA000A08BB008A017008CA
:10001800A9007108A8007408A7007508A600780848
:10002800A5007908A4007A08A3007B08A2007C0830
:10003800A1007D08A0000B1D5028081F342880301F
:100048003506F00080307002031D2C28033034027E
:10005800031C34280B11071687160613861350281D
:10006800AC0A0319AD0A0B111930F4000030F50081
:100078002C08F0002D08F10097207808F000790886
:10008800F10000307106031D4B2800307006031D77
:100098005028B40A0319B50A2908F0002808F10005
:1000A8002708F4002608F5002508F8002408F900B8
:1000B8002308FA002208FB002108FC002008FD00A4
:0E00C8003B088A003A0E8300FF0E7F0E0900EF
:1000D600710DF80DF90D7408F8027508031C750FFB
:1000E600F902F00DF10D0F30FC00710DF80DF90D50
:1000F6007408701C8428F8027508031C750FF90231
:100106008928F80775080318750FF907F00DF10D22
:10011600FC0B7828701895287408F80775080318DA
:08012600750FF9070000080045
:10012E00831203137408003A031DA6287508003ABB
:10013E00031DA628FF30F0007F30F100FF28831248
:10014E000313FD01F901F80171087004031900345D
:10015E0071087506FA00FA1BFD09FB01F51FBC2894
:10016E00F409F509F40A0319F50AF11FC328F00979
:10017E00F109F00A0319F10A71087504FA00FA1B65
:10018E00D8286B207B18EB28FD1F0034F009F109ED
:10019E00F00A0319F10AF809F909F80A0319F90A1C
:1001AE000034F51FE728F11BE3287108F9007008E9
:1001BE00F800F101F001CB28F101F001F00A003452
:1001CE00F109F009FB0AC828F80A0319F90A74089C
:1001DE007802031DCB2875087902031DCB28F9017F
:1001EE00F801F00A0319F10AF11FCB280000FF34C1
:0201FE000800F7
:0E0200008312031339088A00380882000800B0
:10020E008312031334083C02C4003508031C013E5C
:10021E003D02C5000A30F4000030F5004408F0003D
:10022E004508F10097207808F0007908F100700871
:10023E00C0007108C1000A30F4000030F500440817
:10024E00F0004508F10097207008C2007108C30045
:10025E0000303F06031D352900303E06031D3E29A2
:10026E000712871240088700420885004C2900308B
:10027E003F06031D442901303E06031D4C29061777
:0C028E008617400888004208890008001C
:10029A000030831203133D06031D552900303C0626
:1002AA00031D7B2900303F06031D5D2902303E06EF
:1002BA00031D63290614861006117A2900303F06A9
:1002CA00031D692904303E06031D6F290610861492
:1002DA0006117A2900303F06031D752903303E06B0
:1002EA00031D7A29061086100615A62900303D0638
:1002FA00031D812901303C06031DA62900303F0653
:10030A00031D892902303E06031D8F298615061210
:10031A008612A62900303F06031D952904303E06A1
:10032A00031D9B29861106168612A62900303F0650
:10033A00031DA12903303E06031DA62986110612B4
:04034A00861608000B
:10034E0083120313881BEE290130AE000030AF007C
:10035E0000303106031DB52901303006031DBD29BD
:10036E00B001B101B401B501AC01AD01BC01BD01DB
:10037E000330BE000030BF004D2180303506F00046
:10038E0080307002031DCD29033034020318E42996
:10039E000130BC000030BD000430BE000030BF0094
:1003AE004D210330BC000030BD000130BE000030D6
:1003BE00BF00072107168716ED290130BC0000305B
:1003CE00BD000230BE000030BF004D212E2A881F16
:1003DE002E2A0130B0000030B10000302F06031D70
:1003EE00FA2901302E06031D022AAE01AF01B40117
:1003FE00B501AC01AD010130BC000030BD000330D1
:10040E00BE000030BF004D2180303506F000803038
:10041E007002031D142A033034020318272ABC016C
:10042E00BD010430BE000030BF004D210330BC00C2
:10043E000030BD00BE01BF010721061386132E2A10
:10044E00BC01BD010230BE000030BF004D210800CE
:10045E00D22A83120313BC01BD010230BE0000304C
:10046E00BF004D210F30BC000030BD00BE01BF01EA
:10047E00072180303506F00080307002031D492AB6
:10048E000C30340203185E2A0C30BC000030BD0064
:10049E000130BE000030BF0007210130BC0000302B
:1004AE00BD000330BE000030BF004D21702A0F305A
:1004BE00BC000030BD000130BE000030BF0007217F
:1004CE000130BC000030BD000430BE000030BF0063
:1004DE004D2180303506F00080307002031D792AE0
:1004EE000F303402031C832AB401B501AC01AD01F7
:1004FE000830AA000030AB00E42A0130BC00003006
:10050E00BD000230BE000030BF004D211730BC00D0
:10051E000030BD000130BE000030BF00072180302A
:10052E003506F00080307002031D9F2A143034020D
:10053E000318B02ABC01BD010330BE000030BF005D
:10054E004D211430BC000030BD00BE01BF0107219B
:10055E00BE2ABC01BD010430BE000030BF004D21DB
:10056E001730BC000030BD00BE01BF010721803036
:10057E003506F00080307002031DC72A1730340292
:10058E00031CD12AB401B501AC01AD010530AA009E
:10059E000030AB00E42A8312031300302B06031D38
:1005AE00DA2A05302A060319302A00302B06031DDD
:0C05BE00E22A08302A060319842A0800EB
:1005CA0000218A110A128000840AB80A0319B90A9A
:0805DA00F003031DE52A0800EF
:1005E200053083120313AA00AB01AC01AD01AE01C9
:1005F200AF01B001B101B201B301B401B501B6015D
:10060200B701073083169F00850189018312850196
:100612008B178B1687308316810083128101831614
:1006220087018312870183168601C03088008312F6
:10063200081F2F2B0130B6000030B7000030330600
:10064200031D252B01303206031D2D2BB201B301F0
:10065200B401B501AC01AD01A721422B0130B200BA
:100662000030B30000303706031D392B0130360647
:10067200031D412BB601B701B401B501AC01AD01B7
:060682002F22182B432B70
:02400E004A2F37
:00000001FF
